:100000000C9434000C9451000C9451000C94510049
:100010000C94BD050C9451000C9451000C94E70312
:100020000C9451000C9451000C9451000C9451000C
:100030000C9451000C9451000C94E9040C94510060
:100040000C9451000C9451000C9451000C945100EC
:100050000C9451000C9451000C9451000C945100DC
:100060000C9451000C94510011241FBECFEFD8E026
:10007000DEBFCDBF11E0A0E0B1E0E0EDFFE002C0E7
:1000800005900D92AE33B107D9F711E0AEE3B1E0C0
:1000900001C01D92A937B107E1F70E949A030C94A1
:1000A000E6070C9400008AB1837C8AB908954A9BC4
:1000B00013C04B9B11C04C9B0FC04D9B0DC080E0EB
:1000C00090E0A0E8BFE38093460190934701A0939E
:1000D0004801B09349017DC04A9B09C04B9B07C0B2
:1000E0004C9B05C080E090E0A0E4B0E40AC04A9BCD
:1000F00011C04B9B0FC04D9B0DC080E090E0A0E86D
:10010000BFE380933E0190933F01A0934001B093E1
:1001100041015FC04A9B09C04C9B07C04D9B05C075
:1001200080E090E0A0E8BFEBECCF4B9B09C04C9B7C
:1001300007C04D9B05C080E090E0A0E4B0ECE1CFAB
:100140004A9B04C04B9B02C04D992BC04A9B07C0E1
:100150004B9B05C080E090E0A0E0B0E4D2CF4A9B8A
:1001600007C04D9B05C080E090E0A0E0B0E0C9CFA3
:100170004C9B07C04D9B05C080E090E0A0E0B0EC38
:10018000C0CF4A9B05C080E090E0A0E8B0E4B9CFC2
:100190004D9B05C080E090E0A0E8B0ECB2CF4B9B57
:1001A00005C080E090E0A0E4B0E40BC04C9B05C02B
:1001B00080E090E0A0E8B0E404C080E090E0A0E03F
:1001C000B0E48093420190934301A0934401B09323
:1001D000450120913E0130913F01409140015091F5
:1001E0004101B901CA010895AF92BF92CF92DF9247
:1001F000EF92FF920F931F93A0905801B090590176
:10020000C0905A01D0905B01C601B50120E030E0FA
:1002100040E050E00E946206882381F460913E0134
:1002200070913F01809140019091410120E030E0C8
:1002300040E850E40E9462068823E9F110E0C6011C
:10024000B50120E030E040E850E40E9462068823D7
:10025000B9F511E060914601709147018091480124
:100260009091490120E030E040E85FE30E9462069F
:10027000882389F480E090E0A0E8B0E480933E0118
:1002800090933F01A0934001B093410180E090E042
:10029000A0E0B0E0DEC060913E0170913F0180912E
:1002A00040019091410120E030E040E050E40E94A4
:1002B0006206882329F480E090E0A0E8B0E41EC044
:1002C000C601B50120E030E040E850EC0E94620633
:1002D0008823E9F460913E0170913F0180914001D3
:1002E0009091410120E030E040E850E40E94620635
:1002F000882369F480E090E0A0E0B0EC80933E01B8
:1003000090933F01A0934001B0934101CFC01123CE
:1003100081F060914201709143018091440190917C
:10032000450120E030E040E050E40E94620688236E
:1003300009F3C601B50120E030E040E450EC0E9432
:100340006206882381F4609142017091430180919B
:1003500044019091450120E030E040E050E40E94EB
:100360006206882339F2C601B50120E030E040E0A2
:1003700050EC0E946206882349F5E0904201F0901B
:1003800043010091440110914501C801B70120E0EB
:1003900030E040E450E40E946206882351F0C80136
:1003A000B70120E030E040E850E40E946206882374
:1003B00069F480E090E0A0E8BFEB80933E01909369
:1003C0003F01A0934001B093410164C0C601B50153
:1003D00020E030E040E050E40E946206882309F00B
:1003E00041C060914201709143018091440190911C
:1003F000450120E030E040E050E40E94620688239E
:1004000089F5609146017091470180914801909172
:10041000490120E030E040E85FE30E946206882363
:1004200009F580E090E0A0E8B0E480933E0190936D
:100430003F01A0934001B093410180E090E0A0E033
:10044000B0E08093420190934301A0934401B093A4
:1004500045018093460190934701A0934801B093D2
:10046000490124C06091420170914301809144018F
:100470009091450120E030E040E050E40E946206A7
:100480008823A1F4A0923E01B0923F01C0924001A6
:10049000D092410180E090E0A0E0B0E08093420182
:1004A00090934301A0934401B093450120913E01F4
:1004B00030913F014091400150914101B901CA0181
:1004C0001F910F91FF90EF90DF90CF90BF90AF9072
:1004D00008952F923F924F925F926F927F928F92E8
:1004E0009F92AF92BF92CF92DF92EF92FF920F93C3
:1004F0001F93E0905801F090590100915A0110911A
:100500005B01E0925C01F0925D0100935E0110934B
:100510005F01A0903E01B0903F01C0904001D0909B
:100520004101A0924A01B0924B01C0924C01D0927D
:100530004D01C601B50120914E0130914F0140910E
:100540005001509151010E94FE053B014C01609306
:100550004E0170934F018093500190935101C60159
:10056000B501A80197010E94FD051B012C016093B4
:100570005201709353018093540190935501C60129
:10058000B5012091320130913301409134015091F5
:1005900035010E944D077B018C01C401B3012091FC
:1005A0003A0130913B0140913C0150913D010E9444
:1005B0004D079B01AC01C801B7010E94FE057B01FC
:1005C0008C01C201B1012091360130913701409177
:1005D0003801509139010E944D079B01AC01C801BF
:1005E000B7010E94FE050E9466069B01AC01609364
:1005F000560130935701A0925801B0925901C09210
:100600005A01D0925B01CB011F910F91FF90EF90A7
:10061000DF90CF90BF90AF909F908F907F906F9022
:100620005F904F903F902F90089584B1866384B976
:1006300082EA809380008AE1809381000895FC0122
:1006400080EF95E59093870080938600420F531FBB
:100650005093890040938800621B730B70938B004A
:1006600060938A00E130F10521F485B1806385B99A
:100670000895EF2B19F485B18F7C85B908959C01FD
:1006800080EF95E5909387008093860070938900B2
:100690006093880070938B0060938A002115310568
:1006A00019F42C9A2D9808952130310511F42D9AC2
:1006B0002C9808958FEF85B9089587B18E6087B91A
:1006C000389887B187B984B5826084BD81E387BDDE
:1006D000EEE6F0E0808182608083789485B5846066
:1006E00085BD0895449A85E38A95F1F74498089565
:1006F0003C9A3D98459AE8E6F0E0808182608083EC
:10070000ECE6F0E08081806280837894E0EBF0E0BA
:100710008081826080838BE08093B300E0E7F0E02B
:100720008081826080837894E1EBF0E08081826058
:10073000808308950F931F93CF93DF938AB1837CB7
:100740008AB984B1866384B982EA809380008AE1A1
:100750008093810080917C00806480937C008091F4
:100760007A00876880937A001092C50087E68093AC
:10077000C40088E18093C1008EE08093C2000E9493
:100780005D030E9478030FEFC0E9D1E015E30E94FA
:1007900057000E94F4000E94690205B984EF91E0BD
:1007A000FE013197F1F70197D9F7449A812F8A9585
:1007B000F1F74498209156013091570181E090E083
:1007C00068E97AE348E95AE30E941F03E0CF1F92E9
:1007D0000F920FB60F9211248F939F938091730104
:1007E00090917401019690937401809373019F918D
:1007F0008F910F900FBE0F901F901895569A5E9A8A
:1008000080E49CE90197F1F75E980895ECE7F0E049
:10081000808180648083EAE7F0E08081876880835C
:10082000089590917C008F70907F892B80937C003D
:1008300080917A00806480937A0080917A0086FDAE
:10084000FCCF2091780030917900C9010895109271
:10085000C50087E68093C40088E18093C1008EE0E4
:100860008093C20008958091C00087FFFCCF8091E3
:10087000C6000895982F8091C00085FFFCCF90930B
:10088000C6000895FC0107C08091C00085FFFCCF21
:100890009093C600319690819923B1F70895AF9255
:1008A000BF92CF92DF92EF92FF920F931F93A0908F
:1008B0007501B0907601C0907701D0907801C601A3
:1008C000B50120E030E840E454E40E946206882349
:1008D0009CF460916A0170916B0180916C01909120
:1008E0006D0120E030E04FE254E40E94620688236C
:1008F0001CF480E091E062C0C601B50120E030E860
:100900004BE354E40E9449071816FCF4E0906A0196
:10091000F0906B0100916C0110916D01C801B7015D
:1009200020E030E844E554E40E94620688236CF439
:10093000C801B70120E030E049E354E40E944907D0
:1009400018161CF488E091E039C0C601B50120E01A
:1009500030E042E554E40E94620688234CF5C6016B
:10096000B50120E030E04FE254E40E944907181638
:10097000FCF4E0906A01F0906B0100916C01109121
:100980006D01C801B70120E030E046E654E40E9462
:10099000620688236CF4C801B70120E030E04DE422
:1009A00054E40E94490718161CF480E191E006C047
:1009B00086E191E00E9442048CE291E00E944204B0
:1009C0001F910F91FF90EF90DF90CF90BF90AF906D
:1009D00008951F920F920FB60F9211242F933F93F9
:1009E0004F935F936F937F938F939F93AF93BF9337
:1009F000EF93FF93E0916401F0916501CF010196BF
:100A000090936501809364018832910521F481817E
:100A10008860818319C080359105B1F486E00E9419
:100A20001104AA2797FDA095BA2FBC01CD010E9401
:100A3000990660936A0170936B0180936C019093A7
:100A40006D01439888B188B98091640190916501E6
:100A50008837910511F4429A1FC0803A9105E1F45C
:100A600086E00E941104AA2797FDA095BA2FBC0129
:100A7000CD010E9499066093750170937601809371
:100A8000770190937801429888B188B910926501F6
:100A9000109264010E944F04FF91EF91BF91AF91BA
:100AA0009F918F917F916F915F914F913F912F9186
:100AB0000F900FBE0F901F9018958F929F92AF923C
:100AC000BF92CF92DF92EF92FF920F931F93DF932B
:100AD000CF93CDB7DEB72A970FB6F894DEBF0FBE1F
:100AE000CDBF6B017C01AA24BB244E010894811C5C
:100AF000911C84010A0D1B1DC701B6012AE030E0DC
:100B000040E050E00E94C407605DF80160830894F3
:100B1000A11CB11CC701B6012AE030E040E050E062
:100B20000E94C407C901DA016C017D01C114D1041E
:100B3000E104F104F1F6F5013197E80DF91D90811A
:100B40008091C00085FFFCCF9093C6003197EC17D1
:100B5000FD07A9F72A960FB6F894DEBF0FBECDBFEA
:100B6000CF91DF911F910F91FF90EF90DF90CF9089
:100B7000BF90AF909F908F9008951F920F920FB6E5
:100B80000F9211242F933F934F935F936F937F9313
:100B90008F939F93AF93BF93EF93FF93359B05C0C4
:100BA000109274011092730117C02091730130915B
:100BB0007401C901880F991F820F931F880F991F15
:100BC0006AE370E00E94B00780E090E00E945D055B
:100BD0008FE291E00E944204FF91EF91BF91AF91AB
:100BE0009F918F917F916F915F914F913F912F9145
:100BF0000F900FBE0F901F9018955058BB27AA2733
:100C00000ED00DC1FED030F003D120F031F49F3F63
:100C100011F41EF4F3C00EF4E095E7FBE9C0E92FF0
:100C20000FD180F3BA17620773078407950718F08E
:100C300071F49EF527C10EF4E0950B2EBA2FA02D6E
:100C40000B01B90190010C01CA01A0011124FF2779
:100C5000591B99F0593F50F4503E68F11A16F04074
:100C6000A22F232F342F4427585FF3CF4695379573
:100C70002795A795F0405395C9F77EF41F16BA0B38
:100C8000620B730B840BBAF09150A1F0FF0FBB1FE6
:100C9000661F771F881FC2F70EC0BA0F621F731F2F
:100CA000841F48F4879577956795B795F7959E3F8C
:100CB00008F0B3CF9395880F08F09927EE0F97951A
:100CC0008795089571D008F481E0089504D0689460
:100CD000B111D9C00895BCD088F09F5790F0B92FBA
:100CE0009927B751A0F0D1F0660F771F881F991F81
:100CF0001AF0BA95C9F712C0B13081F0C3D0B1E093
:100D00000895C0C0672F782F8827B85F39F0B93FA2
:100D1000CCF3869577956795B395D9F73EF4909582
:100D20008095709561957F4F8F4F9F4F0895E89400
:100D300009C097FB3EF490958095709561957F4F23
:100D40008F4F9F4F9923A9F0F92F96E9BB279395D1
:100D5000F695879577956795B795F111F8CFFAF4E1
:100D6000BB0F11F460FF1BC06F5F7F4F8F4F9F4F12
:100D700016C0882311F096E911C0772321F09EE870
:100D8000872F762F05C0662371F096E8862F70E0D6
:100D900060E02AF09A95660F771F881FDAF7880FB0
:100DA0009695879597F90895990F0008550FAA0B06
:100DB000E0E8FEEF16161706E807F907C0F012166E
:100DC0001306E407F50798F0621B730B840B950B71
:100DD00039F40A2661F0232B242B252B21F40895C6
:100DE0000A2609F4A140A6958FEF811D811D089563
:100DF00097F99F6780E870E060E008959FEF80ECCE
:100E0000089500240A941616170618060906089570
:100E100000240A9412161306140605060895092ED6
:100E20000394000C11F4882352F0BB0F40F4BF2B45
:100E300011F460FF04C06F5F7F4F8F4F9F4F089585
:100E400057FD9058440F551F59F05F3F71F047957B
:100E5000880F97FB991F61F09F3F79F08795089560
:100E6000121613061406551FF2CF4695F1DF08C07F
:100E7000161617061806991FF1CF8695710561059C
:100E800008940895E894BB2766277727CB0197F944
:100E900008958ADF08F48FEF08950BD0C0CFB1DF3B
:100EA00028F0B6DF18F0952309F0A2CFA7CF1124C0
:100EB000EACFC6DFA0F3959FD1F3950F50E0551F01
:100EC000629FF001729FBB27F00DB11D639FAA279F
:100ED000F00DB11DAA1F649F6627B00DA11D661FEE
:100EE000829F2227B00DA11D621F739FB00DA11D0F
:100EF000621F839FA00D611D221F749F3327A00DC9
:100F0000611D231F849F600D211D822F762F6A2F64
:100F100011249F5750408AF0E1F088234AF0EE0FE9
:100F2000FF1FBB1F661F771F881F91505040A9F7F6
:100F30009E3F510570F05CCFA6CF5F3FECF3983E2B
:100F4000DCF3869577956795B795F795E7959F5F5D
:100F5000C1F7FE2B880F911D9695879597F90895F7
:100F6000AA1BBB1B51E107C0AA1FBB1FA617B707CF
:100F700010F0A61BB70B881F991F5A95A9F78095EB
:100F80009095BC01CD010895A1E21A2EAA1BBB1BAE
:100F9000FD010DC0AA1FBB1FEE1FFF1FA217B30745
:100FA000E407F50720F0A21BB30BE40BF50B661F5B
:100FB000771F881F991F1A9469F76095709580951F
:100FC00090959B01AC01BD01CF010895F894FFCF2E
:100FD000426C61636B0D0A00477265656E0D0A0015
:100FE0005265640D0A00436F6C6F72204E6F74205F
:100FF0004465746563746564202020000D0A000A4E
:0E1000000D0000C0C14400003E43CDCC4C3F6B
:00000001FF
